{
  "_format": "hh-sol-artifact-1",
  "contractName": "CommunityToken",
  "sourceName": "contracts/CommunityToken.sol",
  "abi": [
    {
      "inputs": [],
      "stateMutability": "nonpayable",
      "type": "constructor"
    },
    {
      "anonymous": false,
      "inputs": [
        {
          "indexed": true,
          "internalType": "address",
          "name": "account",
          "type": "address"
        },
        {
          "indexed": true,
          "internalType": "address",
          "name": "operator",
          "type": "address"
        },
        {
          "indexed": false,
          "internalType": "bool",
          "name": "approved",
          "type": "bool"
        }
      ],
      "name": "ApprovalForAll",
      "type": "event"
    },
    {
      "anonymous": false,
      "inputs": [
        {
          "indexed": true,
          "internalType": "address",
          "name": "previousOwner",
          "type": "address"
        },
        {
          "indexed": true,
          "internalType": "address",
          "name": "newOwner",
          "type": "address"
        }
      ],
      "name": "OwnershipTransferred",
      "type": "event"
    },
    {
      "anonymous": false,
      "inputs": [
        {
          "indexed": true,
          "internalType": "address",
          "name": "operator",
          "type": "address"
        },
        {
          "indexed": true,
          "internalType": "address",
          "name": "from",
          "type": "address"
        },
        {
          "indexed": true,
          "internalType": "address",
          "name": "to",
          "type": "address"
        },
        {
          "indexed": false,
          "internalType": "uint256[]",
          "name": "ids",
          "type": "uint256[]"
        },
        {
          "indexed": false,
          "internalType": "uint256[]",
          "name": "values",
          "type": "uint256[]"
        }
      ],
      "name": "TransferBatch",
      "type": "event"
    },
    {
      "anonymous": false,
      "inputs": [
        {
          "indexed": true,
          "internalType": "address",
          "name": "operator",
          "type": "address"
        },
        {
          "indexed": true,
          "internalType": "address",
          "name": "from",
          "type": "address"
        },
        {
          "indexed": true,
          "internalType": "address",
          "name": "to",
          "type": "address"
        },
        {
          "indexed": false,
          "internalType": "uint256",
          "name": "id",
          "type": "uint256"
        },
        {
          "indexed": false,
          "internalType": "uint256",
          "name": "value",
          "type": "uint256"
        }
      ],
      "name": "TransferSingle",
      "type": "event"
    },
    {
      "anonymous": false,
      "inputs": [
        {
          "indexed": false,
          "internalType": "string",
          "name": "value",
          "type": "string"
        },
        {
          "indexed": true,
          "internalType": "uint256",
          "name": "id",
          "type": "uint256"
        }
      ],
      "name": "URI",
      "type": "event"
    },
    {
      "inputs": [
        {
          "internalType": "address",
          "name": "account",
          "type": "address"
        },
        {
          "internalType": "uint256",
          "name": "id",
          "type": "uint256"
        }
      ],
      "name": "balanceOf",
      "outputs": [
        {
          "internalType": "uint256",
          "name": "",
          "type": "uint256"
        }
      ],
      "stateMutability": "view",
      "type": "function"
    },
    {
      "inputs": [
        {
          "internalType": "address[]",
          "name": "accounts",
          "type": "address[]"
        },
        {
          "internalType": "uint256[]",
          "name": "ids",
          "type": "uint256[]"
        }
      ],
      "name": "balanceOfBatch",
      "outputs": [
        {
          "internalType": "uint256[]",
          "name": "",
          "type": "uint256[]"
        }
      ],
      "stateMutability": "view",
      "type": "function"
    },
    {
      "inputs": [
        {
          "internalType": "uint256",
          "name": "id",
          "type": "uint256"
        }
      ],
      "name": "exists",
      "outputs": [
        {
          "internalType": "bool",
          "name": "",
          "type": "bool"
        }
      ],
      "stateMutability": "view",
      "type": "function"
    },
    {
      "inputs": [
        {
          "internalType": "address",
          "name": "account",
          "type": "address"
        },
        {
          "internalType": "address",
          "name": "operator",
          "type": "address"
        }
      ],
      "name": "isApprovedForAll",
      "outputs": [
        {
          "internalType": "bool",
          "name": "",
          "type": "bool"
        }
      ],
      "stateMutability": "view",
      "type": "function"
    },
    {
      "inputs": [
        {
          "internalType": "address",
          "name": "to",
          "type": "address"
        },
        {
          "internalType": "uint256",
          "name": "id",
          "type": "uint256"
        },
        {
          "internalType": "uint256",
          "name": "amount",
          "type": "uint256"
        }
      ],
      "name": "mint",
      "outputs": [],
      "stateMutability": "nonpayable",
      "type": "function"
    },
    {
      "inputs": [],
      "name": "owner",
      "outputs": [
        {
          "internalType": "address",
          "name": "",
          "type": "address"
        }
      ],
      "stateMutability": "view",
      "type": "function"
    },
    {
      "inputs": [],
      "name": "renounceOwnership",
      "outputs": [],
      "stateMutability": "nonpayable",
      "type": "function"
    },
    {
      "inputs": [
        {
          "internalType": "address",
          "name": "from",
          "type": "address"
        },
        {
          "internalType": "address",
          "name": "to",
          "type": "address"
        },
        {
          "internalType": "uint256[]",
          "name": "ids",
          "type": "uint256[]"
        },
        {
          "internalType": "uint256[]",
          "name": "amounts",
          "type": "uint256[]"
        },
        {
          "internalType": "bytes",
          "name": "data",
          "type": "bytes"
        }
      ],
      "name": "safeBatchTransferFrom",
      "outputs": [],
      "stateMutability": "nonpayable",
      "type": "function"
    },
    {
      "inputs": [
        {
          "internalType": "address",
          "name": "from",
          "type": "address"
        },
        {
          "internalType": "address",
          "name": "to",
          "type": "address"
        },
        {
          "internalType": "uint256",
          "name": "id",
          "type": "uint256"
        },
        {
          "internalType": "uint256",
          "name": "amount",
          "type": "uint256"
        },
        {
          "internalType": "bytes",
          "name": "data",
          "type": "bytes"
        }
      ],
      "name": "safeTransferFrom",
      "outputs": [],
      "stateMutability": "nonpayable",
      "type": "function"
    },
    {
      "inputs": [
        {
          "internalType": "address",
          "name": "operator",
          "type": "address"
        },
        {
          "internalType": "bool",
          "name": "approved",
          "type": "bool"
        }
      ],
      "name": "setApprovalForAll",
      "outputs": [],
      "stateMutability": "nonpayable",
      "type": "function"
    },
    {
      "inputs": [
        {
          "internalType": "bytes4",
          "name": "interfaceId",
          "type": "bytes4"
        }
      ],
      "name": "supportsInterface",
      "outputs": [
        {
          "internalType": "bool",
          "name": "",
          "type": "bool"
        }
      ],
      "stateMutability": "view",
      "type": "function"
    },
    {
      "inputs": [
        {
          "internalType": "uint256",
          "name": "id",
          "type": "uint256"
        }
      ],
      "name": "totalSupply",
      "outputs": [
        {
          "internalType": "uint256",
          "name": "",
          "type": "uint256"
        }
      ],
      "stateMutability": "view",
      "type": "function"
    },
    {
      "inputs": [
        {
          "internalType": "address",
          "name": "newOwner",
          "type": "address"
        }
      ],
      "name": "transferOwnership",
      "outputs": [],
      "stateMutability": "nonpayable",
      "type": "function"
    },
    {
      "inputs": [
        {
          "internalType": "uint256",
          "name": "",
          "type": "uint256"
        }
      ],
      "name": "uri",
      "outputs": [
        {
          "internalType": "string",
          "name": "",
          "type": "string"
        }
      ],
      "stateMutability": "view",
      "type": "function"
    }
  ],
  "bytecode": "0x60806040523480156200001157600080fd5b506040805160208101909152600081526200002c8162000047565b50620000416200003b62000060565b62000064565b62000199565b80516200005c906002906020840190620000b6565b5050565b3390565b600480546001600160a01b038381166001600160a01b0319831681179093556040519116919082907f8be0079c531659141344cd1fd0a4f28419497f9722a3daafe3b4186f6b6457e090600090a35050565b828054620000c4906200015c565b90600052602060002090601f016020900481019282620000e8576000855562000133565b82601f106200010357805160ff191683800117855562000133565b8280016001018555821562000133579182015b828111156200013357825182559160200191906001019062000116565b506200014192915062000145565b5090565b5b8082111562000141576000815560010162000146565b6002810460018216806200017157607f821691505b602082108114156200019357634e487b7160e01b600052602260045260246000fd5b50919050565b611abd80620001a96000396000f3fe608060405234801561001057600080fd5b50600436106100e95760003560e01c8063715018a61161008c578063bd85b03911610066578063bd85b039146101e2578063e985e9c5146101f5578063f242432a14610208578063f2fde38b14610216576100e9565b8063715018a6146101b25780638da5cb5b146101ba578063a22cb465146101cf576100e9565b8063156e29f6116100c8578063156e29f6146101575780632eb2c2d61461016c5780634e1273f41461017f5780634f558e791461019f576100e9565b8062fdd58e146100ee57806301ffc9a7146101175780630e89341c14610137575b600080fd5b6101016100fc36600461124b565b610229565b60405161010e91906117f2565b60405180910390f35b61012a61012536600461136f565b6102b4565b60405161010e91906114dd565b61014a6101453660046113a7565b61035e565b60405161010e91906114e8565b61016a610165366004611274565b6103f2565b005b61016a61017a366004611108565b610485565b61019261018d3660046112a6565b6104b7565b60405161010e9190611499565b61012a6101ad3660046113a7565b610655565b61016a610668565b6101c26106e7565b60405161010e9190611428565b61016a6101dd366004611211565b610704565b6101016101f03660046113a7565b61071a565b61012a6102033660046110d6565b61072c565b61016a61017a3660046111ae565b61016a6102243660046110b5565b610767565b600073ffffffffffffffffffffffffffffffffffffffff8316610281576040517f08c379a0000000000000000000000000000000000000000000000000000000008152600401610278906115b5565b60405180910390fd5b5060009081526020818152604080832073ffffffffffffffffffffffffffffffffffffffff949094168352929052205490565b60007fffffffff0000000000000000000000000000000000000000000000000000000082167fd9b67a2600000000000000000000000000000000000000000000000000000000148061034757507fffffffff0000000000000000000000000000000000000000000000000000000082167f0e89341c00000000000000000000000000000000000000000000000000000000145b80610356575061035682610833565b90505b919050565b60606002805461036d9061185c565b80601f01602080910402602001604051908101604052809291908181526020018280546103999061185c565b80156103e65780601f106103bb576101008083540402835291602001916103e6565b820191906000526020600020905b8154815290600101906020018083116103c957829003601f168201915b50505050509050919050565b6103fa61087d565b73ffffffffffffffffffffffffffffffffffffffff166104186106e7565b73ffffffffffffffffffffffffffffffffffffffff1614610465576040517f08c379a00000000000000000000000000000000000000000000000000000000081526004016102789061166f565b61048083838360405180602001604052806000815250610881565b505050565b6040517f08c379a0000000000000000000000000000000000000000000000000000000008152600401610278906116a4565b606081518351146104f4576040517f08c379a000000000000000000000000000000000000000000000000000000000815260040161027890611738565b6000835167ffffffffffffffff811115610537577f4e487b7100000000000000000000000000000000000000000000000000000000600052604160045260246000fd5b604051908082528060200260200182016040528015610560578160200160208202803683370190505b50905060005b845181101561064d576105f98582815181106105ab577f4e487b7100000000000000000000000000000000000000000000000000000000600052603260045260246000fd5b60200260200101518583815181106105ec577f4e487b7100000000000000000000000000000000000000000000000000000000600052603260045260246000fd5b6020026020010151610229565b828281518110610632577f4e487b7100000000000000000000000000000000000000000000000000000000600052603260045260246000fd5b6020908102919091010152610646816118fb565b9050610566565b509392505050565b6000806106618361071a565b1192915050565b61067061087d565b73ffffffffffffffffffffffffffffffffffffffff1661068e6106e7565b73ffffffffffffffffffffffffffffffffffffffff16146106db576040517f08c379a00000000000000000000000000000000000000000000000000000000081526004016102789061166f565b6106e560006109d2565b565b60045473ffffffffffffffffffffffffffffffffffffffff165b90565b61071661070f61087d565b8383610a49565b5050565b60009081526003602052604090205490565b73ffffffffffffffffffffffffffffffffffffffff918216600090815260016020908152604080832093909416825291909152205460ff1690565b61076f61087d565b73ffffffffffffffffffffffffffffffffffffffff1661078d6106e7565b73ffffffffffffffffffffffffffffffffffffffff16146107da576040517f08c379a00000000000000000000000000000000000000000000000000000000081526004016102789061166f565b73ffffffffffffffffffffffffffffffffffffffff8116610827576040517f08c379a000000000000000000000000000000000000000000000000000000000815260040161027890611612565b610830816109d2565b50565b7fffffffff0000000000000000000000000000000000000000000000000000000081167f01ffc9a70000000000000000000000000000000000000000000000000000000014919050565b3390565b73ffffffffffffffffffffffffffffffffffffffff84166108ce576040517f08c379a000000000000000000000000000000000000000000000000000000000815260040161027890611795565b60006108d861087d565b90506108f9816000876108ea88610b4b565b6108f388610b4b565b87610bbd565b60008481526020818152604080832073ffffffffffffffffffffffffffffffffffffffff891684529091528120805485929061093690849061182d565b925050819055508473ffffffffffffffffffffffffffffffffffffffff16600073ffffffffffffffffffffffffffffffffffffffff168273ffffffffffffffffffffffffffffffffffffffff167fc3d58168c5ae7397731d063d5bbf3d657854427343f4c083240f7aacaa2d0f6287876040516109b49291906117fb565b60405180910390a46109cb81600087878787610d97565b5050505050565b6004805473ffffffffffffffffffffffffffffffffffffffff8381167fffffffffffffffffffffffff0000000000000000000000000000000000000000831681179093556040519116919082907f8be0079c531659141344cd1fd0a4f28419497f9722a3daafe3b4186f6b6457e090600090a35050565b8173ffffffffffffffffffffffffffffffffffffffff168373ffffffffffffffffffffffffffffffffffffffff161415610aaf576040517f08c379a0000000000000000000000000000000000000000000000000000000008152600401610278906116db565b73ffffffffffffffffffffffffffffffffffffffff8381166000818152600160209081526040808320948716808452949091529081902080547fffffffffffffffffffffffffffffffffffffffffffffffffffffffffffffff0016851515179055517f17307eab39ab6107e8899845ad3d59bd9653f200f220920489ca2b5937696c3190610b3e9085906114dd565b60405180910390a3505050565b60408051600180825281830190925260609160009190602080830190803683370190505090508281600081518110610bac577f4e487b7100000000000000000000000000000000000000000000000000000000600052603260045260246000fd5b602090810291909101015292915050565b610bcb868686868686610d8f565b73ffffffffffffffffffffffffffffffffffffffff8516610cad5760005b8351811015610cab57828181518110610c2b577f4e487b7100000000000000000000000000000000000000000000000000000000600052603260045260246000fd5b602002602001015160036000868481518110610c70577f4e487b7100000000000000000000000000000000000000000000000000000000600052603260045260246000fd5b602002602001015181526020019081526020016000206000828254610c95919061182d565b90915550610ca49050816118fb565b9050610be9565b505b73ffffffffffffffffffffffffffffffffffffffff8416610d8f5760005b8351811015610d8d57828181518110610d0d577f4e487b7100000000000000000000000000000000000000000000000000000000600052603260045260246000fd5b602002602001015160036000868481518110610d52577f4e487b7100000000000000000000000000000000000000000000000000000000600052603260045260246000fd5b602002602001015181526020019081526020016000206000828254610d779190611845565b90915550610d869050816118fb565b9050610ccb565b505b505050505050565b610db68473ffffffffffffffffffffffffffffffffffffffff16610f8c565b15610d8f576040517ff23a6e6100000000000000000000000000000000000000000000000000000000815273ffffffffffffffffffffffffffffffffffffffff85169063f23a6e6190610e159089908990889088908890600401611449565b602060405180830381600087803b158015610e2f57600080fd5b505af1925050508015610e7d575060408051601f3d9081017fffffffffffffffffffffffffffffffffffffffffffffffffffffffffffffffe0168201909252610e7a9181019061138b565b60015b610f1157610e89611992565b806308c379a01415610edd5750610e9e6119a9565b80610ea95750610edf565b806040517f08c379a000000000000000000000000000000000000000000000000000000000815260040161027891906114e8565b505b6040517f08c379a0000000000000000000000000000000000000000000000000000000008152600401610278906114fb565b7fffffffff0000000000000000000000000000000000000000000000000000000081167ff23a6e610000000000000000000000000000000000000000000000000000000014610d8d576040517f08c379a000000000000000000000000000000000000000000000000000000000815260040161027890611558565b3b151590565b803573ffffffffffffffffffffffffffffffffffffffff8116811461035957600080fd5b600082601f830112610fc6578081fd5b81356020610fd382611809565b604051610fe082826118b0565b838152828101915085830183850287018401881015610ffd578586fd5b855b8581101561101b57813584529284019290840190600101610fff565b5090979650505050505050565b600082601f830112611038578081fd5b813567ffffffffffffffff81111561105257611052611963565b60405161108760207fffffffffffffffffffffffffffffffffffffffffffffffffffffffffffffffe0601f85011601826118b0565b81815284602083860101111561109b578283fd5b816020850160208301379081016020019190915292915050565b6000602082840312156110c6578081fd5b6110cf82610f92565b9392505050565b600080604083850312156110e8578081fd5b6110f183610f92565b91506110ff60208401610f92565b90509250929050565b600080600080600060a0868803121561111f578081fd5b61112886610f92565b945061113660208701610f92565b9350604086013567ffffffffffffffff80821115611152578283fd5b61115e89838a01610fb6565b94506060880135915080821115611173578283fd5b61117f89838a01610fb6565b93506080880135915080821115611194578283fd5b506111a188828901611028565b9150509295509295909350565b600080600080600060a086880312156111c5578081fd5b6111ce86610f92565b94506111dc60208701610f92565b93506040860135925060608601359150608086013567ffffffffffffffff811115611205578182fd5b6111a188828901611028565b60008060408385031215611223578182fd5b61122c83610f92565b915060208301358015158114611240578182fd5b809150509250929050565b6000806040838503121561125d578182fd5b61126683610f92565b946020939093013593505050565b600080600060608486031215611288578283fd5b61129184610f92565b95602085013595506040909401359392505050565b600080604083850312156112b8578182fd5b823567ffffffffffffffff808211156112cf578384fd5b818501915085601f8301126112e2578384fd5b813560206112ef82611809565b6040516112fc82826118b0565b8381528281019150858301838502870184018b1015611319578889fd5b8896505b848710156113425761132e81610f92565b83526001969096019591830191830161131d565b5096505086013592505080821115611358578283fd5b5061136585828601610fb6565b9150509250929050565b600060208284031215611380578081fd5b81356110cf81611a59565b60006020828403121561139c578081fd5b81516110cf81611a59565b6000602082840312156113b8578081fd5b5035919050565b60008151808452815b818110156113e4576020818501810151868301820152016113c8565b818111156113f55782602083870101525b50601f017fffffffffffffffffffffffffffffffffffffffffffffffffffffffffffffffe0169290920160200192915050565b73ffffffffffffffffffffffffffffffffffffffff91909116815260200190565b600073ffffffffffffffffffffffffffffffffffffffff808816835280871660208401525084604083015283606083015260a0608083015261148e60a08301846113bf565b979650505050505050565b6020808252825182820181905260009190848201906040850190845b818110156114d1578351835292840192918401916001016114b5565b50909695505050505050565b901515815260200190565b6000602082526110cf60208301846113bf565b60208082526034908201527f455243313135353a207472616e7366657220746f206e6f6e204552433131353560408201527f526563656976657220696d706c656d656e746572000000000000000000000000606082015260800190565b60208082526028908201527f455243313135353a204552433131353552656365697665722072656a6563746560408201527f6420746f6b656e73000000000000000000000000000000000000000000000000606082015260800190565b6020808252602b908201527f455243313135353a2062616c616e636520717565727920666f7220746865207a60408201527f65726f2061646472657373000000000000000000000000000000000000000000606082015260800190565b60208082526026908201527f4f776e61626c653a206e6577206f776e657220697320746865207a65726f206160408201527f6464726573730000000000000000000000000000000000000000000000000000606082015260800190565b6020808252818101527f4f776e61626c653a2063616c6c6572206973206e6f7420746865206f776e6572604082015260600190565b6020808252600b908201527f4e6f7420416c6c6f776564000000000000000000000000000000000000000000604082015260600190565b60208082526029908201527f455243313135353a2073657474696e6720617070726f76616c2073746174757360408201527f20666f722073656c660000000000000000000000000000000000000000000000606082015260800190565b60208082526029908201527f455243313135353a206163636f756e747320616e6420696473206c656e67746860408201527f206d69736d617463680000000000000000000000000000000000000000000000606082015260800190565b60208082526021908201527f455243313135353a206d696e7420746f20746865207a65726f2061646472657360408201527f7300000000000000000000000000000000000000000000000000000000000000606082015260800190565b90815260200190565b918252602082015260400190565b600067ffffffffffffffff82111561182357611823611963565b5060209081020190565b6000821982111561184057611840611934565b500190565b60008282101561185757611857611934565b500390565b60028104600182168061187057607f821691505b602082108114156118aa577f4e487b7100000000000000000000000000000000000000000000000000000000600052602260045260246000fd5b50919050565b7fffffffffffffffffffffffffffffffffffffffffffffffffffffffffffffffe0601f830116810181811067ffffffffffffffff821117156118f4576118f4611963565b6040525050565b60007fffffffffffffffffffffffffffffffffffffffffffffffffffffffffffffffff82141561192d5761192d611934565b5060010190565b7f4e487b7100000000000000000000000000000000000000000000000000000000600052601160045260246000fd5b7f4e487b7100000000000000000000000000000000000000000000000000000000600052604160045260246000fd5b600060033d111561070157600481823e5160e01c90565b600060443d10156119b957610701565b6040517ffffffffffffffffffffffffffffffffffffffffffffffffffffffffffffffffc803d016004833e81513d67ffffffffffffffff8160248401118184111715611a09575050505050610701565b8285019150815181811115611a2357505050505050610701565b843d8701016020828501011115611a3f57505050505050610701565b611a4e602082860101876118b0565b509094505050505090565b7fffffffff000000000000000000000000000000000000000000000000000000008116811461083057600080fdfea2646970667358221220c46081bad051ab91b6ba5dc6e74e5d880a1db621f6051f1bede1a8e8eb563f7364736f6c63430008010033",
  "linkReferences": {},
  "deployedLinkReferences": {}
}